{
  "_format": "hh-sol-artifact-1",
  "contractName": "SeedSale",
  "sourceName": "contracts/SeedSale.sol",
  "abi": [
    {
      "inputs": [
        {
          "internalType": "uint256",
          "name": "autoAmount",
          "type": "uint256"
        },
        {
          "internalType": "uint256",
          "name": "femAmount",
          "type": "uint256"
        }
      ],
      "name": "sendValues",
      "outputs": [],
      "stateMutability": "payable",
      "type": "function"
    },
    {
      "inputs": [],
      "name": "withdraw",
      "outputs": [],
      "stateMutability": "payable",
      "type": "function"
    },
    {
      "stateMutability": "payable",
      "type": "receive"
    }
  ],
  "bytecode": "0x608060405234801561001057600080fd5b506101d0806100206000396000f3fe60806040526004361061002d5760003560e01c80633ccfd60b1461003957806357d441591461004357610034565b3661003457005b600080fd5b61004161005f565b005b61005d600480360381019061005891906100f7565b6100de565b005b73a3b17117f104e5965e98f07fe007784f6e3f3a2d73ffffffffffffffffffffffffffffffffffffffff164760405161009790610156565b60006040518083038185875af1925050503d80600081146100d4576040519150601f19603f3d011682016040523d82523d6000602084013e6100d9565b606091505b505050565b5050565b6000813590506100f181610183565b92915050565b6000806040838503121561010a57600080fd5b6000610118858286016100e2565b9250506020610129858286016100e2565b9150509250929050565b600061014060008361016b565b915061014b82610180565b600082019050919050565b600061016182610133565b9150819050919050565b600081905092915050565b6000819050919050565b50565b61018c81610176565b811461019757600080fd5b5056fea2646970667358221220629a492ac5ad1ca682816890add9da5b3c972ee6c8327377940af95e579d4e1364736f6c63430008040033",
  "linkReferences": {},
  "deployedLinkReferences": {}
}